:03000000020D1AD4
:0C0D1A00787FE4F6D8FD758197020D612A
:100AF000000000000000FFFFFFFFFFFF1F000000DD
:100B000000000A1F12121F0A0A1F12121F0AF5E024
:100B1000EDEDE0F5000000000000181000001018D6
:100B20003E4141413E007F020C307F007F41414108
:100B30003E007F49494941001F2040201F003E419F
:100B40004141220001017F01010041417F414100FB
:100B50000201590906007E0909097E0000005F00B4
:100B600000000000000000003F4040403F003E45C4
:100B700049513E0000217F010000234549512100D9
:100B80004241516946000C14247F040072515151B6
:100B90004E001E294949060040474850600036492A
:100BA000494936003049494A3C0000000606000029
:100BB0007F0814224100FE601860FE0004050B044B
:100BC000030105030C0A0409070203010004000ADB
:0A0BD00009050702030106030A0AE3
:100FE500010804010F00010D09010C0001090301AD
:0C0FF5000E00020A0000C102C180C18190
:080F6400C2A1D2A27F017E00B0
:100F6C00E4FDFCC3ED9FEE6480F8EC6480985015B2
:100F7C00E4FBFA0BBB00010AEB640A4A70F50DBDE9
:050F8C0000010C80DEF5
:010F9100223D
:05103900C2A3D2A422B5
:05103E00D2A3C2A422B0
:05101C0012103E7F40B0
:0C1021008F90C2A0120F64C2A2020F6CDC
:0C102D008F90D2A0120F64C2A2020F6CC0
:100EB400F583E49375F006A42420F9740B35F0FA55
:020EC4007BFFB2
:060EC6008B438A448945BC
:100ECC00E4F546F547AB43AA44A9458547828546D8
:100EDC0083120BDAFF12102D0547E5477002054609
:0B0EEC00C39406E5466480948040DA61
:010EF70022D8
:0D0E15001210217B007A0079317D0A7C00EB
:0A0E22008B3C8A3D893E8C3F8D40D9
:100E2C00E4F541F542C3E5429540E53F6480F8E5C1
:100E3C00416480985025AB3CAA3DA93E85428285F1
:100E4C004183120BDA75F006A424F0F9740A120E21
:0B0E5C00C10542E54270CE054180CA8E
:010E67002268
:100F9200EF540FC454F0FEEF54F0C4540F4EFF54FC
:100FA2003325E025E0FEEF54CC1313543F4EFF549B
:0C0FB2005525E0FEEF54AAC3134EFF22A9
:100C7E00AB0BAA0A7C007D64AF03AE02120C298F67
:100C8E003C7C007D0AAF03AE02120C297C007D0A6B
:100C9E00120C298D3D753E0AAE02AF037C007D0A13
:100CAE00120C298D3F75400B75410C12101C7FBA2A
:100CBE00121021E4F542F543E4F544F545743C2564
:100CCE0043F8E675F006A4246EF582E4340BF58342
:100CDE00E5822545F582E5833544F583E493FF12DD
:100CEE000F9212102D0545E54570020544C394067A
:100CFE00E5446480948040C50543E5437002054297
:0B0D0E00C39406E5426480948040AD71
:010D190022B7
:060DA6007B007A007921B8
:060DAC008B2D8A2E892F19
:100DB2007F077E00E4F530F531AD31EF75F00AA41E
:100DC200243E2DF8E6FCEF75F00AA424482DF8A67F
:100DD200040531E53170020530640A453070DAEFFE
:100DE2001F70011EEF4E70CCE4F530F531AB2DAA29
:100DF2002EA92F853182853083120BDAFF744825A4
:100E020031F8A6070531E53170020530640A453034
:020E120070DB93
:010E140022BB
:100FBE0020B20C300009E508D3940040021508A2B7
:100FCE00B2920020B30C300109E508C39409500217
:060FDE000508A2B3920118
:010FE40022EA
:0609DB007B007A00792187
:0609E1008B2D8A2E892FE8
:1009E700E4FFFEAB2DAA2EA92F8F828E83E4120C73
:1009F700070FBF00010EEF640A4E70E7E50875F0B8
:100A07001FA4FDACF0E50975F011A42DFDE5F03C40
:100A1700FCE50C75F017A42DFFE5F03CFE7856E6D3
:100A27007C002FFFEC3ECF240DCF3400FE7DFB1260
:100A37000C298D09050CE50975F00584AFF0EFC3A6
:100A47009402500BE50FC394015004050F800FEF7C
:100A5700D394034009E50FD394004002150FE5092D
:100A670075F00784AFF0EFC39402500BE50DC39404
:100A7700095004050D800FEFD394044009E50DD309
:100A870094084002150DAB2DAA2EA92F850F82754C
:100A970083007402120C07850D827583007402129D
:100AA7000C07E50975F00384E5F02405FFE433FE40
:100AB700C3E50C9FEE6480F87480984018E4F50C49
:100AC700E509540704AB2DAA2EA92FF582758300DB
:100AD7007404120C07050BE50B7002050AC3949604
:080AE700E50A94004002D2026E
:010AEF0022E4
:10080000121039E4F52DF52EE4F52FF530AF30E573
:100810002E75F00AA424482FF8E6FE74312FF8A6AE
:10082000060530E5307002052F640A452F70DE2082
:10083000020302093EE4F52FF53074312530F8E665
:10084000700276010530E5307002052F640A452FED
:1008500070E8C37407952EFFE4952DFEE4F52FF59F
:1008600030AD30E52E75F00AA424482DF8E6640476
:05087000600302091302
:10087500C203EF64014E700EE508B53009E4B52FEB
:1008850005D20302090AEF64024E703AE508D394D3
:10089500004006E50814FC80027C008C3BECFBC3A1
:1008A500E5309B7480F8652F98405AE5082401FBD4
:1008B500E433FAD3E5309BEA6480F8E52F64809849
:1008C5005043D203803FEF64034E7039E508D3945B
:1008D500014007E50824FEFC80027C008C3BECFB14
:1008E500C3E5309B7480F8652F984019E50824020C
:1008F500FBE433FAD3E5309BEA6480F8E52F6480A6
:0E090500985002D20320030674312DF87601BB
:100913000530E5307002052F640A452F6003020895
:1009230061E52E6406452D703074312508F8E6FF25
:1009330064016003EF70227607801EE4F52FF53023
:1009430074312530F8E6B40702E4F60530E530707B
:1009530002052F640A452F70E77F40121021E52E10
:1009630024B8FF120E15052EE52E7002052DC39433
:1009730008E52D648094805003020808E4F52FF500
:1009830030AF30748E2FF8E6FE74312FF8A60630A0
:10099300021574312530F8E6700276017431253082
:1009A300F8E6B4040276010530E5307002052F64E1
:1009B3000A452F70CC3002047F0580027F03743117
:1009C3002508F8A607753102753A027F40121021F7
:0809D3007FBF120E15020C7E1D
:10100200748E2508F8E6FFB40205E4F50ED322EF4C
:0A101200B40405750E01D322C322B9
:100F350012101C7FBC121021E4F52DF52E74BC2572
:100F45002EF582740B352D120EB4052EE52E70028A
:0F0F5500052DC3940AE52D6480948040E080FE52
:100EF80012101C7FBC121021E4F52DF52EE50E70A2
:100F08000A74C6252EF582740B800874D0252EF538
:100F180082740B352D120EB4052EE52E7002052DA8
:0D0F2800C3940AE52D6480948040D280FEC1
:100E6800E4F52BF52C1209DB120DA6052CE52C70E8
:100E780002052BC39408E52B6480948040E7120890
:100E8800007F147E00120F6C120FBE1209DBC3E53F
:100E98000B94C9E50A94004003120F35120DA612EF
:0C0EA80010025003120EF812080080D552
:100D2600020E68E493A3F8E493A34003F68001F26D
:100D360008DFF48029E493A3F85407240CC8C333CE
:100D4600C4540F4420C8834004F456800146F6DF9D
:100D5600E4800B0102040810204080900FE5E47E39
:100D6600019360BCA3FF543F30E509541FFEE49392
:100D7600A360010ECF54C025E060A840B8E493A359
:100D8600FAE493A3F8E493A3C8C582C8CAC583CA84
:100D9600F0A3C8C582C8CAC583CADFE9DEE780BE3C
:0110010000EE
:100BDA00BB010CE58229F582E5833AF583E02250D0
:100BEA0006E92582F8E622BBFE06E92582F8E2221A
:0D0BFA00E58229F582E5833AF583E4932234
:100C0700F8BB010DE58229F582E5833AF583E8F023
:100C1700225006E92582C8F622BBFE05E92582C8CF
:020C2700F222B7
:100C2900BC000BBE0029EF8DF084FFADF022E4CCAF
:100C3900F875F008EF2FFFEE33FEEC33FCEE9DEC78
:100C4900984005FCEE9DFE0FD5F0E9E4CEFD22EDBE
:100C5900F8F5F0EE8420D21CFEADF075F008EF2F08
:100C6900FFED33FD4007985006D5F0F222C398FDF9
:050C79000FD5F0EA2296
:00000001FF
